{
  "contractName": "PatientRegistry",
  "abi": [
    {
      "inputs": [],
      "stateMutability": "nonpayable",
      "type": "constructor"
    },
    {
      "inputs": [],
      "name": "admin",
      "outputs": [
        {
          "internalType": "address",
          "name": "",
          "type": "address"
        }
      ],
      "stateMutability": "view",
      "type": "function",
      "constant": true
    },
    {
      "inputs": [
        {
          "internalType": "address",
          "name": "patientAddress",
          "type": "address"
        },
        {
          "internalType": "string",
          "name": "recordId",
          "type": "string"
        },
        {
          "internalType": "string",
          "name": "dataHash",
          "type": "string"
        }
      ],
      "name": "registerPatient",
      "outputs": [],
      "stateMutability": "nonpayable",
      "type": "function"
    },
    {
      "inputs": [
        {
          "internalType": "address",
          "name": "patientAddress",
          "type": "address"
        }
      ],
      "name": "getPatientRecords",
      "outputs": [
        {
          "components": [
            {
              "internalType": "string",
              "name": "recordId",
              "type": "string"
            },
            {
              "internalType": "uint256",
              "name": "timestamp",
              "type": "uint256"
            }
          ],
          "internalType": "struct PatientRegistry.PatientRecord[]",
          "name": "",
          "type": "tuple[]"
        }
      ],
      "stateMutability": "view",
      "type": "function",
      "constant": true
    },
    {
      "inputs": [
        {
          "internalType": "address",
          "name": "patientAddress",
          "type": "address"
        },
        {
          "internalType": "string",
          "name": "recordId",
          "type": "string"
        }
      ],
      "name": "getDataHash",
      "outputs": [
        {
          "internalType": "string",
          "name": "",
          "type": "string"
        }
      ],
      "stateMutability": "view",
      "type": "function",
      "constant": true
    }
  ],
  "bytecode": "0x608060405234801561001057600080fd5b50336000806101000a81548173ffffffffffffffffffffffffffffffffffffffff021916908373ffffffffffffffffffffffffffffffffffffffff160217905550610ccc806100606000396000f3fe608060405234801561001057600080fd5b506004361061004c5760003560e01c806318bd4847146100515780631b096d1c1461008157806337d91799146100b1578063f851a440146100cd575b600080fd5b61006b600480360381019061006691906104bc565b6100eb565b6040516100789190610691565b60405180910390f35b61009b600480360381019061009691906107e8565b610225565b6040516100a8919061088e565b60405180910390f35b6100cb60048036038101906100c691906108b0565b610313565b005b6100d5610426565b6040516100e2919061094a565b60405180910390f35b6060600160008373ffffffffffffffffffffffffffffffffffffffff1673ffffffffffffffffffffffffffffffffffffffff168152602001908152602001600020805480602002602001604051908101604052809291908181526020016000905b8282101561021a578382906000526020600020906002020160405180604001604052908160008201805461017f90610994565b80601f01602080910402602001604051908101604052809291908181526020018280546101ab90610994565b80156101f85780601f106101cd576101008083540402835291602001916101f8565b820191906000526020600020905b8154815290600101906020018083116101db57829003601f168201915b505050505081526020016001820154815250508152602001906001019061014c565b505050509050919050565b6060600260008473ffffffffffffffffffffffffffffffffffffffff1673ffffffffffffffffffffffffffffffffffffffff168152602001908152602001600020826040516102749190610a01565b9081526020016040518091039020805461028d90610994565b80601f01602080910402602001604051908101604052809291908181526020018280546102b990610994565b80156103065780601f106102db57610100808354040283529160200191610306565b820191906000526020600020905b8154815290600101906020018083116102e957829003601f168201915b5050505050905092915050565b60006040518060400160405280848152602001428152509050600160008573ffffffffffffffffffffffffffffffffffffffff1673ffffffffffffffffffffffffffffffffffffffff16815260200190815260200160002081908060018154018082558091505060019003906000526020600020906002020160009091909190915060008201518160000190816103aa9190610bc4565b5060208201518160010155505081600260008673ffffffffffffffffffffffffffffffffffffffff1673ffffffffffffffffffffffffffffffffffffffff168152602001908152602001600020846040516104059190610a01565b9081526020016040518091039020908161041f9190610bc4565b5050505050565b60008054906101000a900473ffffffffffffffffffffffffffffffffffffffff1681565b6000604051905090565b600080fd5b600080fd5b600073ffffffffffffffffffffffffffffffffffffffff82169050919050565b60006104898261045e565b9050919050565b6104998161047e565b81146104a457600080fd5b50565b6000813590506104b681610490565b92915050565b6000602082840312156104d2576104d1610454565b5b60006104e0848285016104a7565b91505092915050565b600081519050919050565b600082825260208201905092915050565b6000819050602082019050919050565b600081519050919050565b600082825260208201905092915050565b60005b8381101561054f578082015181840152602081019050610534565b60008484015250505050565b6000601f19601f8301169050919050565b600061057782610515565b6105818185610520565b9350610591818560208601610531565b61059a8161055b565b840191505092915050565b6000819050919050565b6105b8816105a5565b82525050565b600060408301600083015184820360008601526105db828261056c565b91505060208301516105f060208601826105af565b508091505092915050565b600061060783836105be565b905092915050565b6000602082019050919050565b6000610627826104e9565b61063181856104f4565b93508360208202850161064385610505565b8060005b8581101561067f578484038952815161066085826105fb565b945061066b8361060f565b925060208a01995050600181019050610647565b50829750879550505050505092915050565b600060208201905081810360008301526106ab818461061c565b905092915050565b600080fd5b600080fd5b7f4e487b7100000000000000000000000000000000000000000000000000000000600052604160045260246000fd5b6106f58261055b565b810181811067ffffffffffffffff82111715610714576107136106bd565b5b80604052505050565b600061072761044a565b905061073382826106ec565b919050565b600067ffffffffffffffff821115610753576107526106bd565b5b61075c8261055b565b9050602081019050919050565b82818337600083830152505050565b600061078b61078684610738565b61071d565b9050828152602081018484840111156107a7576107a66106b8565b5b6107b2848285610769565b509392505050565b600082601f8301126107cf576107ce6106b3565b5b81356107df848260208601610778565b91505092915050565b600080604083850312156107ff576107fe610454565b5b600061080d858286016104a7565b925050602083013567ffffffffffffffff81111561082e5761082d610459565b5b61083a858286016107ba565b9150509250929050565b600082825260208201905092915050565b600061086082610515565b61086a8185610844565b935061087a818560208601610531565b6108838161055b565b840191505092915050565b600060208201905081810360008301526108a88184610855565b905092915050565b6000806000606084860312156108c9576108c8610454565b5b60006108d7868287016104a7565b935050602084013567ffffffffffffffff8111156108f8576108f7610459565b5b610904868287016107ba565b925050604084013567ffffffffffffffff81111561092557610924610459565b5b610931868287016107ba565b9150509250925092565b6109448161047e565b82525050565b600060208201905061095f600083018461093b565b92915050565b7f4e487b7100000000000000000000000000000000000000000000000000000000600052602260045260246000fd5b600060028204905060018216806109ac57607f821691505b6020821081036109bf576109be610965565b5b50919050565b600081905092915050565b60006109db82610515565b6109e581856109c5565b93506109f5818560208601610531565b80840191505092915050565b6000610a0d82846109d0565b915081905092915050565b60008190508160005260206000209050919050565b60006020601f8301049050919050565b600082821b905092915050565b600060088302610a7a7fffffffffffffffffffffffffffffffffffffffffffffffffffffffffffffffff82610a3d565b610a848683610a3d565b95508019841693508086168417925050509392505050565b6000819050919050565b6000610ac1610abc610ab7846105a5565b610a9c565b6105a5565b9050919050565b6000819050919050565b610adb83610aa6565b610aef610ae782610ac8565b848454610a4a565b825550505050565b600090565b610b04610af7565b610b0f818484610ad2565b505050565b5b81811015610b3357610b28600082610afc565b600181019050610b15565b5050565b601f821115610b7857610b4981610a18565b610b5284610a2d565b81016020851015610b61578190505b610b75610b6d85610a2d565b830182610b14565b50505b505050565b600082821c905092915050565b6000610b9b60001984600802610b7d565b1980831691505092915050565b6000610bb48383610b8a565b9150826002028217905092915050565b610bcd82610515565b67ffffffffffffffff811115610be657610be56106bd565b5b610bf08254610994565b610bfb828285610b37565b600060209050601f831160018114610c2e5760008415610c1c578287015190505b610c268582610ba8565b865550610c8e565b601f198416610c3c86610a18565b60005b82811015610c6457848901518255600182019150602085019450602081019050610c3f565b86831015610c815784890151610c7d601f891682610b8a565b8355505b6001600288020188555050505b50505050505056fea2646970667358221220073db2645a600c2229f31b68eab316915f8e60dab0a18d7e8fb6bcb4a932af5464736f6c63430008130033",
  "immutableReferences": {},
  "source": "// SPDX-License-Identifier: MIT\r\npragma solidity ^0.8.19;\r\n\r\ncontract PatientRegistry {\r\n    address public admin;\r\n\r\n    struct PatientRecord {\r\n        string recordId; // Store only the record ID\r\n        uint256 timestamp;\r\n    }\r\n\r\n    mapping(address => PatientRecord[]) private patientRecords;\r\n    mapping(address => mapping(string => string)) private dataHashes; // Mapping to store data hashes\r\n\r\n    constructor() {\r\n        admin = msg.sender;\r\n    }\r\n\r\n    function registerPatient(\r\n        address patientAddress,\r\n        string memory recordId,\r\n        string memory dataHash\r\n    ) public {\r\n        PatientRecord memory newRecord = PatientRecord({\r\n            recordId: recordId,\r\n            timestamp: block.timestamp\r\n        });\r\n\r\n        patientRecords[patientAddress].push(newRecord);\r\n        dataHashes[patientAddress][recordId] = dataHash; // Store the hash\r\n    }\r\n\r\n    function getPatientRecords(address patientAddress) public view returns (PatientRecord[] memory) {\r\n        return patientRecords[patientAddress];\r\n    }\r\n\r\n    function getDataHash(address patientAddress, string memory recordId) public view returns (string memory) {\r\n        return dataHashes[patientAddress][recordId]; // Retrieve the hash\r\n    }\r\n}",
  "sourcePath": "D:\\Dev\\Ethereum\\Cancer_v3\\contracts\\PatientRegistry.sol",
  "compiler": {
    "name": "solc",
    "version": "0.8.19+commit.7dd6d404.Emscripten.clang"
  },
  "schemaVersion": "3.4.16",
  "updatedAt": "2024-12-08T11:24:32.064Z",
  "networkType": "ethereum",
  "devdoc": {
    "kind": "dev",
    "methods": {},
    "version": 1
  },
  "userdoc": {
    "kind": "user",
    "methods": {},
    "version": 1
  }
}