{
  "contractName": "PatientRegistry",
  "abi": [
    {
      "inputs": [],
      "stateMutability": "nonpayable",
      "type": "constructor"
    },
    {
      "inputs": [],
      "name": "admin",
      "outputs": [
        {
          "internalType": "address",
          "name": "",
          "type": "address"
        }
      ],
      "stateMutability": "view",
      "type": "function",
      "constant": true
    },
    {
      "inputs": [
        {
          "internalType": "address",
          "name": "patientAddress",
          "type": "address"
        },
        {
          "internalType": "string",
          "name": "ipfsHash",
          "type": "string"
        }
      ],
      "name": "registerPatient",
      "outputs": [],
      "stateMutability": "nonpayable",
      "type": "function"
    },
    {
      "inputs": [
        {
          "internalType": "address",
          "name": "patientAddress",
          "type": "address"
        }
      ],
      "name": "getPatientRecords",
      "outputs": [
        {
          "components": [
            {
              "internalType": "string",
              "name": "ipfsHash",
              "type": "string"
            },
            {
              "internalType": "uint256",
              "name": "timestamp",
              "type": "uint256"
            }
          ],
          "internalType": "struct PatientRegistry.PatientRecord[]",
          "name": "",
          "type": "tuple[]"
        }
      ],
      "stateMutability": "view",
      "type": "function",
      "constant": true
    }
  ],
  "bytecode": "0x608060405234801561001057600080fd5b50336000806101000a81548173ffffffffffffffffffffffffffffffffffffffff021916908373ffffffffffffffffffffffffffffffffffffffff1602179055506109ef806100606000396000f3fe608060405234801561001057600080fd5b50600436106100415760003560e01c806318bd4847146100465780638048c2f014610076578063f851a44014610092575b600080fd5b610060600480360381019061005b9190610329565b6100b0565b60405161006d91906104fe565b60405180910390f35b610090600480360381019061008b9190610655565b6101ea565b005b61009a610293565b6040516100a791906106c0565b60405180910390f35b6060600160008373ffffffffffffffffffffffffffffffffffffffff1673ffffffffffffffffffffffffffffffffffffffff168152602001908152602001600020805480602002602001604051908101604052809291908181526020016000905b828210156101df57838290600052602060002090600202016040518060400160405290816000820180546101449061070a565b80601f01602080910402602001604051908101604052809291908181526020018280546101709061070a565b80156101bd5780601f10610192576101008083540402835291602001916101bd565b820191906000526020600020905b8154815290600101906020018083116101a057829003601f168201915b5050505050815260200160018201548152505081526020019060010190610111565b505050509050919050565b60006040518060400160405280838152602001428152509050600160008473ffffffffffffffffffffffffffffffffffffffff1673ffffffffffffffffffffffffffffffffffffffff168152602001908152602001600020819080600181540180825580915050600190039060005260206000209060020201600090919091909150600082015181600001908161028191906108e7565b50602082015181600101555050505050565b60008054906101000a900473ffffffffffffffffffffffffffffffffffffffff1681565b6000604051905090565b600080fd5b600080fd5b600073ffffffffffffffffffffffffffffffffffffffff82169050919050565b60006102f6826102cb565b9050919050565b610306816102eb565b811461031157600080fd5b50565b600081359050610323816102fd565b92915050565b60006020828403121561033f5761033e6102c1565b5b600061034d84828501610314565b91505092915050565b600081519050919050565b600082825260208201905092915050565b6000819050602082019050919050565b600081519050919050565b600082825260208201905092915050565b60005b838110156103bc5780820151818401526020810190506103a1565b60008484015250505050565b6000601f19601f8301169050919050565b60006103e482610382565b6103ee818561038d565b93506103fe81856020860161039e565b610407816103c8565b840191505092915050565b6000819050919050565b61042581610412565b82525050565b6000604083016000830151848203600086015261044882826103d9565b915050602083015161045d602086018261041c565b508091505092915050565b6000610474838361042b565b905092915050565b6000602082019050919050565b600061049482610356565b61049e8185610361565b9350836020820285016104b085610372565b8060005b858110156104ec57848403895281516104cd8582610468565b94506104d88361047c565b925060208a019950506001810190506104b4565b50829750879550505050505092915050565b600060208201905081810360008301526105188184610489565b905092915050565b600080fd5b600080fd5b7f4e487b7100000000000000000000000000000000000000000000000000000000600052604160045260246000fd5b610562826103c8565b810181811067ffffffffffffffff821117156105815761058061052a565b5b80604052505050565b60006105946102b7565b90506105a08282610559565b919050565b600067ffffffffffffffff8211156105c0576105bf61052a565b5b6105c9826103c8565b9050602081019050919050565b82818337600083830152505050565b60006105f86105f3846105a5565b61058a565b90508281526020810184848401111561061457610613610525565b5b61061f8482856105d6565b509392505050565b600082601f83011261063c5761063b610520565b5b813561064c8482602086016105e5565b91505092915050565b6000806040838503121561066c5761066b6102c1565b5b600061067a85828601610314565b925050602083013567ffffffffffffffff81111561069b5761069a6102c6565b5b6106a785828601610627565b9150509250929050565b6106ba816102eb565b82525050565b60006020820190506106d560008301846106b1565b92915050565b7f4e487b7100000000000000000000000000000000000000000000000000000000600052602260045260246000fd5b6000600282049050600182168061072257607f821691505b602082108103610735576107346106db565b5b50919050565b60008190508160005260206000209050919050565b60006020601f8301049050919050565b600082821b905092915050565b60006008830261079d7fffffffffffffffffffffffffffffffffffffffffffffffffffffffffffffffff82610760565b6107a78683610760565b95508019841693508086168417925050509392505050565b6000819050919050565b60006107e46107df6107da84610412565b6107bf565b610412565b9050919050565b6000819050919050565b6107fe836107c9565b61081261080a826107eb565b84845461076d565b825550505050565b600090565b61082761081a565b6108328184846107f5565b505050565b5b818110156108565761084b60008261081f565b600181019050610838565b5050565b601f82111561089b5761086c8161073b565b61087584610750565b81016020851015610884578190505b61089861089085610750565b830182610837565b50505b505050565b600082821c905092915050565b60006108be600019846008026108a0565b1980831691505092915050565b60006108d783836108ad565b9150826002028217905092915050565b6108f082610382565b67ffffffffffffffff8111156109095761090861052a565b5b610913825461070a565b61091e82828561085a565b600060209050601f831160018114610951576000841561093f578287015190505b61094985826108cb565b8655506109b1565b601f19841661095f8661073b565b60005b8281101561098757848901518255600182019150602085019450602081019050610962565b868310156109a457848901516109a0601f8916826108ad565b8355505b6001600288020188555050505b50505050505056fea26469706673582212205b26956348711d9547b37e3425173b42bb72640926943c1afeec7cf3e379d60c64736f6c63430008130033",
  "immutableReferences": {},
  "source": "// SPDX-License-Identifier: MIT\r\npragma solidity ^0.8.19;\r\n\r\ncontract PatientRegistry {\r\n    address public admin;\r\n\r\n    struct PatientRecord {\r\n        string ipfsHash; // Store only the IPFS hash\r\n        uint256 timestamp;\r\n    }\r\n\r\n    mapping(address => PatientRecord[]) private patientRecords;\r\n\r\n    constructor() {\r\n        admin = msg.sender;\r\n    }\r\n\r\n    function registerPatient(\r\n        address patientAddress,\r\n        string memory ipfsHash\r\n    ) public {\r\n        PatientRecord memory newRecord = PatientRecord({\r\n            ipfsHash: ipfsHash,\r\n            timestamp: block.timestamp\r\n        });\r\n\r\n        patientRecords[patientAddress].push(newRecord);\r\n    }\r\n\r\n    function getPatientRecords(address patientAddress) public view returns (PatientRecord[] memory) {\r\n        return patientRecords[patientAddress];\r\n    }\r\n}\r\n",
  "sourcePath": "D:\\Dev\\Ethereum\\Cancer_v3\\contracts\\PatientRegistry.sol",
  "compiler": {
    "name": "solc",
    "version": "0.8.19+commit.7dd6d404.Emscripten.clang"
  },
  "schemaVersion": "3.4.16",
  "updatedAt": "2024-12-05T14:33:12.604Z",
  "networkType": "ethereum",
  "devdoc": {
    "kind": "dev",
    "methods": {},
    "version": 1
  },
  "userdoc": {
    "kind": "user",
    "methods": {},
    "version": 1
  }
}