{
  "contractName": "PatientRegistry",
  "abi": [
    {
      "inputs": [],
      "stateMutability": "nonpayable",
      "type": "constructor"
    },
    {
      "inputs": [],
      "name": "admin",
      "outputs": [
        {
          "internalType": "address",
          "name": "",
          "type": "address"
        }
      ],
      "stateMutability": "view",
      "type": "function",
      "constant": true
    },
    {
      "inputs": [
        {
          "internalType": "uint256",
          "name": "",
          "type": "uint256"
        }
      ],
      "name": "patientAddresses",
      "outputs": [
        {
          "internalType": "address",
          "name": "",
          "type": "address"
        }
      ],
      "stateMutability": "view",
      "type": "function",
      "constant": true
    },
    {
      "inputs": [
        {
          "internalType": "address",
          "name": "",
          "type": "address"
        }
      ],
      "name": "patients",
      "outputs": [
        {
          "internalType": "string",
          "name": "firstName",
          "type": "string"
        },
        {
          "internalType": "string",
          "name": "lastName",
          "type": "string"
        },
        {
          "internalType": "string",
          "name": "contactNumber",
          "type": "string"
        },
        {
          "internalType": "string",
          "name": "gender",
          "type": "string"
        },
        {
          "internalType": "string",
          "name": "cancerType",
          "type": "string"
        }
      ],
      "stateMutability": "view",
      "type": "function",
      "constant": true
    },
    {
      "inputs": [
        {
          "internalType": "address",
          "name": "_patientAddress",
          "type": "address"
        },
        {
          "internalType": "string",
          "name": "_firstName",
          "type": "string"
        },
        {
          "internalType": "string",
          "name": "_lastName",
          "type": "string"
        },
        {
          "internalType": "string",
          "name": "_contactNumber",
          "type": "string"
        },
        {
          "internalType": "string",
          "name": "_gender",
          "type": "string"
        },
        {
          "internalType": "string",
          "name": "_cancerType",
          "type": "string"
        }
      ],
      "name": "registerPatient",
      "outputs": [],
      "stateMutability": "nonpayable",
      "type": "function"
    },
    {
      "inputs": [
        {
          "internalType": "address",
          "name": "_patientAddress",
          "type": "address"
        }
      ],
      "name": "getPatient",
      "outputs": [
        {
          "internalType": "string",
          "name": "firstName",
          "type": "string"
        },
        {
          "internalType": "string",
          "name": "lastName",
          "type": "string"
        },
        {
          "internalType": "string",
          "name": "contactNumber",
          "type": "string"
        },
        {
          "internalType": "string",
          "name": "gender",
          "type": "string"
        },
        {
          "internalType": "string",
          "name": "cancerType",
          "type": "string"
        }
      ],
      "stateMutability": "view",
      "type": "function",
      "constant": true
    },
    {
      "inputs": [],
      "name": "getPatientCount",
      "outputs": [
        {
          "internalType": "uint256",
          "name": "",
          "type": "uint256"
        }
      ],
      "stateMutability": "view",
      "type": "function",
      "constant": true
    }
  ],
  "bytecode": "0x608060405234801561001057600080fd5b50336000806101000a81548173ffffffffffffffffffffffffffffffffffffffff021916908373ffffffffffffffffffffffffffffffffffffffff160217905550611102806100606000396000f3fe608060405234801561001057600080fd5b50600436106100625760003560e01c80630869cfbc146100675780637c2807241461009b578063b40f1691146100b7578063b5368e20146100e7578063c190665b1461011b578063f851a44014610139575b600080fd5b610081600480360381019061007c91906109b6565b610157565b604051610092959493929190610a73565b60405180910390f35b6100b560048036038101906100b09190610c1e565b610435565b005b6100d160048036038101906100cc9190610d6d565b610577565b6040516100de9190610da9565b60405180910390f35b61010160048036038101906100fc91906109b6565b6105b6565b604051610112959493929190610a73565b60405180910390f35b610123610913565b6040516101309190610dd3565b60405180910390f35b610141610920565b60405161014e9190610da9565b60405180910390f35b600160205280600052604060002060009150905080600001805461017a90610e1d565b80601f01602080910402602001604051908101604052809291908181526020018280546101a690610e1d565b80156101f35780601f106101c8576101008083540402835291602001916101f3565b820191906000526020600020905b8154815290600101906020018083116101d657829003601f168201915b50505050509080600101805461020890610e1d565b80601f016020809104026020016040519081016040528092919081815260200182805461023490610e1d565b80156102815780601f1061025657610100808354040283529160200191610281565b820191906000526020600020905b81548152906001019060200180831161026457829003601f168201915b50505050509080600201805461029690610e1d565b80601f01602080910402602001604051908101604052809291908181526020018280546102c290610e1d565b801561030f5780601f106102e45761010080835404028352916020019161030f565b820191906000526020600020905b8154815290600101906020018083116102f257829003601f168201915b50505050509080600301805461032490610e1d565b80601f016020809104026020016040519081016040528092919081815260200182805461035090610e1d565b801561039d5780601f106103725761010080835404028352916020019161039d565b820191906000526020600020905b81548152906001019060200180831161038057829003601f168201915b5050505050908060040180546103b290610e1d565b80601f01602080910402602001604051908101604052809291908181526020018280546103de90610e1d565b801561042b5780601f106104005761010080835404028352916020019161042b565b820191906000526020600020905b81548152906001019060200180831161040e57829003601f168201915b5050505050905085565b6040518060a0016040528086815260200185815260200184815260200183815260200182815250600160008873ffffffffffffffffffffffffffffffffffffffff1673ffffffffffffffffffffffffffffffffffffffff16815260200190815260200160002060008201518160000190816104b09190610ffa565b5060208201518160010190816104c69190610ffa565b5060408201518160020190816104dc9190610ffa565b5060608201518160030190816104f29190610ffa565b5060808201518160040190816105089190610ffa565b509050506002869080600181540180825580915050600190039060005260206000200160009091909190916101000a81548173ffffffffffffffffffffffffffffffffffffffff021916908373ffffffffffffffffffffffffffffffffffffffff160217905550505050505050565b6002818154811061058757600080fd5b906000526020600020016000915054906101000a900473ffffffffffffffffffffffffffffffffffffffff1681565b60608060608060606000600160008873ffffffffffffffffffffffffffffffffffffffff1673ffffffffffffffffffffffffffffffffffffffff1681526020019081526020016000206040518060a001604052908160008201805461061a90610e1d565b80601f016020809104026020016040519081016040528092919081815260200182805461064690610e1d565b80156106935780601f1061066857610100808354040283529160200191610693565b820191906000526020600020905b81548152906001019060200180831161067657829003601f168201915b505050505081526020016001820180546106ac90610e1d565b80601f01602080910402602001604051908101604052809291908181526020018280546106d890610e1d565b80156107255780601f106106fa57610100808354040283529160200191610725565b820191906000526020600020905b81548152906001019060200180831161070857829003601f168201915b5050505050815260200160028201805461073e90610e1d565b80601f016020809104026020016040519081016040528092919081815260200182805461076a90610e1d565b80156107b75780601f1061078c576101008083540402835291602001916107b7565b820191906000526020600020905b81548152906001019060200180831161079a57829003601f168201915b505050505081526020016003820180546107d090610e1d565b80601f01602080910402602001604051908101604052809291908181526020018280546107fc90610e1d565b80156108495780601f1061081e57610100808354040283529160200191610849565b820191906000526020600020905b81548152906001019060200180831161082c57829003601f168201915b5050505050815260200160048201805461086290610e1d565b80601f016020809104026020016040519081016040528092919081815260200182805461088e90610e1d565b80156108db5780601f106108b0576101008083540402835291602001916108db565b820191906000526020600020905b8154815290600101906020018083116108be57829003601f168201915b505050505081525050905080600001518160200151826040015183606001518460800151955095509550955095505091939590929450565b6000600280549050905090565b60008054906101000a900473ffffffffffffffffffffffffffffffffffffffff1681565b6000604051905090565b600080fd5b600080fd5b600073ffffffffffffffffffffffffffffffffffffffff82169050919050565b600061098382610958565b9050919050565b61099381610978565b811461099e57600080fd5b50565b6000813590506109b08161098a565b92915050565b6000602082840312156109cc576109cb61094e565b5b60006109da848285016109a1565b91505092915050565b600081519050919050565b600082825260208201905092915050565b60005b83811015610a1d578082015181840152602081019050610a02565b60008484015250505050565b6000601f19601f8301169050919050565b6000610a45826109e3565b610a4f81856109ee565b9350610a5f8185602086016109ff565b610a6881610a29565b840191505092915050565b600060a0820190508181036000830152610a8d8188610a3a565b90508181036020830152610aa18187610a3a565b90508181036040830152610ab58186610a3a565b90508181036060830152610ac98185610a3a565b90508181036080830152610add8184610a3a565b90509695505050505050565b600080fd5b600080fd5b7f4e487b7100000000000000000000000000000000000000000000000000000000600052604160045260246000fd5b610b2b82610a29565b810181811067ffffffffffffffff82111715610b4a57610b49610af3565b5b80604052505050565b6000610b5d610944565b9050610b698282610b22565b919050565b600067ffffffffffffffff821115610b8957610b88610af3565b5b610b9282610a29565b9050602081019050919050565b82818337600083830152505050565b6000610bc1610bbc84610b6e565b610b53565b905082815260208101848484011115610bdd57610bdc610aee565b5b610be8848285610b9f565b509392505050565b600082601f830112610c0557610c04610ae9565b5b8135610c15848260208601610bae565b91505092915050565b60008060008060008060c08789031215610c3b57610c3a61094e565b5b6000610c4989828a016109a1565b965050602087013567ffffffffffffffff811115610c6a57610c69610953565b5b610c7689828a01610bf0565b955050604087013567ffffffffffffffff811115610c9757610c96610953565b5b610ca389828a01610bf0565b945050606087013567ffffffffffffffff811115610cc457610cc3610953565b5b610cd089828a01610bf0565b935050608087013567ffffffffffffffff811115610cf157610cf0610953565b5b610cfd89828a01610bf0565b92505060a087013567ffffffffffffffff811115610d1e57610d1d610953565b5b610d2a89828a01610bf0565b9150509295509295509295565b6000819050919050565b610d4a81610d37565b8114610d5557600080fd5b50565b600081359050610d6781610d41565b92915050565b600060208284031215610d8357610d8261094e565b5b6000610d9184828501610d58565b91505092915050565b610da381610978565b82525050565b6000602082019050610dbe6000830184610d9a565b92915050565b610dcd81610d37565b82525050565b6000602082019050610de86000830184610dc4565b92915050565b7f4e487b7100000000000000000000000000000000000000000000000000000000600052602260045260246000fd5b60006002820490506001821680610e3557607f821691505b602082108103610e4857610e47610dee565b5b50919050565b60008190508160005260206000209050919050565b60006020601f8301049050919050565b600082821b905092915050565b600060088302610eb07fffffffffffffffffffffffffffffffffffffffffffffffffffffffffffffffff82610e73565b610eba8683610e73565b95508019841693508086168417925050509392505050565b6000819050919050565b6000610ef7610ef2610eed84610d37565b610ed2565b610d37565b9050919050565b6000819050919050565b610f1183610edc565b610f25610f1d82610efe565b848454610e80565b825550505050565b600090565b610f3a610f2d565b610f45818484610f08565b505050565b5b81811015610f6957610f5e600082610f32565b600181019050610f4b565b5050565b601f821115610fae57610f7f81610e4e565b610f8884610e63565b81016020851015610f97578190505b610fab610fa385610e63565b830182610f4a565b50505b505050565b600082821c905092915050565b6000610fd160001984600802610fb3565b1980831691505092915050565b6000610fea8383610fc0565b9150826002028217905092915050565b611003826109e3565b67ffffffffffffffff81111561101c5761101b610af3565b5b6110268254610e1d565b611031828285610f6d565b600060209050601f8311600181146110645760008415611052578287015190505b61105c8582610fde565b8655506110c4565b601f19841661107286610e4e565b60005b8281101561109a57848901518255600182019150602085019450602081019050611075565b868310156110b757848901516110b3601f891682610fc0565b8355505b6001600288020188555050505b50505050505056fea2646970667358221220e2c1503bb38d44a07145f354d76d935186655a46e08f79e39685a52ac47ab84b64736f6c63430008130033",
  "immutableReferences": {},
  "source": "// SPDX-License-Identifier: MIT\r\npragma solidity 0.8.19;\r\n\r\ncontract PatientRegistry {\r\n    address public admin;\r\n\r\n    constructor() {\r\n        admin = msg.sender; // The admin is the one who deploys the contract\r\n    }\r\n\r\n    struct Patient {\r\n        string firstName;\r\n        string lastName;\r\n        string contactNumber;\r\n        string gender;\r\n        string cancerType;\r\n    }\r\n\r\n    mapping(address => Patient) public patients; // Mapping to store patient details\r\n    address[] public patientAddresses; // Array to keep track of patient addresses\r\n\r\n    function registerPatient(\r\n        address _patientAddress,\r\n        string memory _firstName,\r\n        string memory _lastName,\r\n        string memory _contactNumber,\r\n        string memory _gender,\r\n        string memory _cancerType\r\n    ) public {\r\n        patients[_patientAddress] = Patient(\r\n            _firstName,\r\n            _lastName,\r\n            _contactNumber,\r\n            _gender,\r\n            _cancerType\r\n        );\r\n        patientAddresses.push(_patientAddress);\r\n    }\r\n\r\n    function getPatient(address _patientAddress)\r\n        public\r\n        view\r\n        returns (\r\n            string memory firstName,\r\n            string memory lastName,\r\n            string memory contactNumber,\r\n            string memory gender,\r\n            string memory cancerType\r\n        )\r\n    {\r\n        Patient memory patient = patients[_patientAddress];\r\n        return (\r\n            patient.firstName,\r\n            patient.lastName,\r\n            patient.contactNumber,\r\n            patient.gender,\r\n            patient.cancerType\r\n        );\r\n    }\r\n\r\n    function getPatientCount() public view returns (uint256) {\r\n        return patientAddresses.length;\r\n    }\r\n}\r\n",
  "sourcePath": "D:\\Dev\\Ethereum\\Cancer_v3\\contracts\\PatientRegistry.sol",
  "compiler": {
    "name": "solc",
    "version": "0.8.19+commit.7dd6d404.Emscripten.clang"
  },
  "schemaVersion": "3.4.16",
  "updatedAt": "2024-11-05T14:15:26.162Z",
  "networkType": "ethereum",
  "devdoc": {
    "kind": "dev",
    "methods": {},
    "version": 1
  },
  "userdoc": {
    "kind": "user",
    "methods": {},
    "version": 1
  }
}