{
  "contractName": "PatientRegistry",
  "abi": [
    {
      "inputs": [],
      "stateMutability": "nonpayable",
      "type": "constructor"
    },
    {
      "inputs": [],
      "name": "admin",
      "outputs": [
        {
          "internalType": "address",
          "name": "",
          "type": "address"
        }
      ],
      "stateMutability": "view",
      "type": "function",
      "constant": true
    },
    {
      "inputs": [
        {
          "internalType": "address",
          "name": "",
          "type": "address"
        },
        {
          "internalType": "uint256",
          "name": "",
          "type": "uint256"
        }
      ],
      "name": "patientHistory",
      "outputs": [
        {
          "internalType": "string",
          "name": "firstName",
          "type": "string"
        },
        {
          "internalType": "string",
          "name": "lastName",
          "type": "string"
        },
        {
          "internalType": "string",
          "name": "contactNumber",
          "type": "string"
        },
        {
          "internalType": "string",
          "name": "gender",
          "type": "string"
        },
        {
          "internalType": "string",
          "name": "cancerType",
          "type": "string"
        },
        {
          "internalType": "uint256",
          "name": "timestamp",
          "type": "uint256"
        }
      ],
      "stateMutability": "view",
      "type": "function",
      "constant": true
    },
    {
      "inputs": [
        {
          "internalType": "address",
          "name": "_patientAddress",
          "type": "address"
        },
        {
          "internalType": "string",
          "name": "_firstName",
          "type": "string"
        },
        {
          "internalType": "string",
          "name": "_lastName",
          "type": "string"
        },
        {
          "internalType": "string",
          "name": "_contactNumber",
          "type": "string"
        },
        {
          "internalType": "string",
          "name": "_gender",
          "type": "string"
        },
        {
          "internalType": "string",
          "name": "_cancerType",
          "type": "string"
        }
      ],
      "name": "registerPatient",
      "outputs": [],
      "stateMutability": "nonpayable",
      "type": "function"
    },
    {
      "inputs": [
        {
          "internalType": "address",
          "name": "_patientAddress",
          "type": "address"
        }
      ],
      "name": "getLatestPatient",
      "outputs": [
        {
          "internalType": "string",
          "name": "firstName",
          "type": "string"
        },
        {
          "internalType": "string",
          "name": "lastName",
          "type": "string"
        },
        {
          "internalType": "string",
          "name": "contactNumber",
          "type": "string"
        },
        {
          "internalType": "string",
          "name": "gender",
          "type": "string"
        },
        {
          "internalType": "string",
          "name": "cancerType",
          "type": "string"
        },
        {
          "internalType": "uint256",
          "name": "timestamp",
          "type": "uint256"
        }
      ],
      "stateMutability": "view",
      "type": "function",
      "constant": true
    },
    {
      "inputs": [
        {
          "internalType": "address",
          "name": "_patientAddress",
          "type": "address"
        }
      ],
      "name": "getPatientHistoryCount",
      "outputs": [
        {
          "internalType": "uint256",
          "name": "",
          "type": "uint256"
        }
      ],
      "stateMutability": "view",
      "type": "function",
      "constant": true
    },
    {
      "inputs": [
        {
          "internalType": "address",
          "name": "_patientAddress",
          "type": "address"
        },
        {
          "internalType": "uint256",
          "name": "index",
          "type": "uint256"
        }
      ],
      "name": "getPatientByIndex",
      "outputs": [
        {
          "internalType": "string",
          "name": "firstName",
          "type": "string"
        },
        {
          "internalType": "string",
          "name": "lastName",
          "type": "string"
        },
        {
          "internalType": "string",
          "name": "contactNumber",
          "type": "string"
        },
        {
          "internalType": "string",
          "name": "gender",
          "type": "string"
        },
        {
          "internalType": "string",
          "name": "cancerType",
          "type": "string"
        },
        {
          "internalType": "uint256",
          "name": "timestamp",
          "type": "uint256"
        }
      ],
      "stateMutability": "view",
      "type": "function",
      "constant": true
    }
  ],
  "bytecode": "0x608060405234801561001057600080fd5b50336000806101000a81548173ffffffffffffffffffffffffffffffffffffffff021916908373ffffffffffffffffffffffffffffffffffffffff1602179055506117e3806100606000396000f3fe608060405234801561001057600080fd5b50600436106100625760003560e01c806304ba25671461006757806318e7caae146100975780637c280724146100cc578063a007c048146100e8578063c04e46ee1461011d578063f851a44014610152575b600080fd5b610081600480360381019061007c9190610ee6565b610170565b60405161008e9190610f2c565b60405180910390f35b6100b160048036038101906100ac9190610f73565b6101bc565b6040516100c396959493929190611043565b60405180910390f35b6100e660048036038101906100e191906111fc565b6104bd565b005b61010260048036038101906100fd9190610ee6565b6105da565b60405161011496959493929190611043565b60405180910390f35b61013760048036038101906101329190610f73565b610a3b565b60405161014996959493929190611043565b60405180910390f35b61015a610e50565b6040516101679190611324565b60405180910390f35b6000600160008373ffffffffffffffffffffffffffffffffffffffff1673ffffffffffffffffffffffffffffffffffffffff168152602001908152602001600020805490509050919050565b600160205281600052604060002081815481106101d857600080fd5b9060005260206000209060060201600091509150508060000180546101fc9061136e565b80601f01602080910402602001604051908101604052809291908181526020018280546102289061136e565b80156102755780601f1061024a57610100808354040283529160200191610275565b820191906000526020600020905b81548152906001019060200180831161025857829003601f168201915b50505050509080600101805461028a9061136e565b80601f01602080910402602001604051908101604052809291908181526020018280546102b69061136e565b80156103035780601f106102d857610100808354040283529160200191610303565b820191906000526020600020905b8154815290600101906020018083116102e657829003601f168201915b5050505050908060020180546103189061136e565b80601f01602080910402602001604051908101604052809291908181526020018280546103449061136e565b80156103915780601f1061036657610100808354040283529160200191610391565b820191906000526020600020905b81548152906001019060200180831161037457829003601f168201915b5050505050908060030180546103a69061136e565b80601f01602080910402602001604051908101604052809291908181526020018280546103d29061136e565b801561041f5780601f106103f45761010080835404028352916020019161041f565b820191906000526020600020905b81548152906001019060200180831161040257829003601f168201915b5050505050908060040180546104349061136e565b80601f01602080910402602001604051908101604052809291908181526020018280546104609061136e565b80156104ad5780601f10610482576101008083540402835291602001916104ad565b820191906000526020600020905b81548152906001019060200180831161049057829003601f168201915b5050505050908060050154905086565b60006040518060c00160405280878152602001868152602001858152602001848152602001838152602001428152509050600160008873ffffffffffffffffffffffffffffffffffffffff1673ffffffffffffffffffffffffffffffffffffffff168152602001908152602001600020819080600181540180825580915050600190039060005260206000209060060201600090919091909150600082015181600001908161056c919061154b565b506020820151816001019081610582919061154b565b506040820151816002019081610598919061154b565b5060608201518160030190816105ae919061154b565b5060808201518160040190816105c4919061154b565b5060a08201518160050155505050505050505050565b6060806060806060600080600160008973ffffffffffffffffffffffffffffffffffffffff1673ffffffffffffffffffffffffffffffffffffffff1681526020019081526020016000208054905011610668576040517f08c379a000000000000000000000000000000000000000000000000000000000815260040161065f9061168f565b60405180910390fd5b6000600160008973ffffffffffffffffffffffffffffffffffffffff1673ffffffffffffffffffffffffffffffffffffffff16815260200190815260200160002060018060008b73ffffffffffffffffffffffffffffffffffffffff1673ffffffffffffffffffffffffffffffffffffffff168152602001908152602001600020805490506106f791906116de565b8154811061070857610707611712565b5b90600052602060002090600602016040518060c00160405290816000820180546107319061136e565b80601f016020809104026020016040519081016040528092919081815260200182805461075d9061136e565b80156107aa5780601f1061077f576101008083540402835291602001916107aa565b820191906000526020600020905b81548152906001019060200180831161078d57829003601f168201915b505050505081526020016001820180546107c39061136e565b80601f01602080910402602001604051908101604052809291908181526020018280546107ef9061136e565b801561083c5780601f106108115761010080835404028352916020019161083c565b820191906000526020600020905b81548152906001019060200180831161081f57829003601f168201915b505050505081526020016002820180546108559061136e565b80601f01602080910402602001604051908101604052809291908181526020018280546108819061136e565b80156108ce5780601f106108a3576101008083540402835291602001916108ce565b820191906000526020600020905b8154815290600101906020018083116108b157829003601f168201915b505050505081526020016003820180546108e79061136e565b80601f01602080910402602001604051908101604052809291908181526020018280546109139061136e565b80156109605780601f1061093557610100808354040283529160200191610960565b820191906000526020600020905b81548152906001019060200180831161094357829003601f168201915b505050505081526020016004820180546109799061136e565b80601f01602080910402602001604051908101604052809291908181526020018280546109a59061136e565b80156109f25780601f106109c7576101008083540402835291602001916109f2565b820191906000526020600020905b8154815290600101906020018083116109d557829003601f168201915b505050505081526020016005820154815250509050806000015181602001518260400151836060015184608001518560a001519650965096509650965096505091939550919395565b60608060608060606000600160008973ffffffffffffffffffffffffffffffffffffffff1673ffffffffffffffffffffffffffffffffffffffff168152602001908152602001600020805490508710610ac9576040517f08c379a0000000000000000000000000000000000000000000000000000000008152600401610ac09061178d565b60405180910390fd5b6000600160008a73ffffffffffffffffffffffffffffffffffffffff1673ffffffffffffffffffffffffffffffffffffffff1681526020019081526020016000208881548110610b1c57610b1b611712565b5b90600052602060002090600602016040518060c0016040529081600082018054610b459061136e565b80601f0160208091040260200160405190810160405280929190818152602001828054610b719061136e565b8015610bbe5780601f10610b9357610100808354040283529160200191610bbe565b820191906000526020600020905b815481529060010190602001808311610ba157829003601f168201915b50505050508152602001600182018054610bd79061136e565b80601f0160208091040260200160405190810160405280929190818152602001828054610c039061136e565b8015610c505780601f10610c2557610100808354040283529160200191610c50565b820191906000526020600020905b815481529060010190602001808311610c3357829003601f168201915b50505050508152602001600282018054610c699061136e565b80601f0160208091040260200160405190810160405280929190818152602001828054610c959061136e565b8015610ce25780601f10610cb757610100808354040283529160200191610ce2565b820191906000526020600020905b815481529060010190602001808311610cc557829003601f168201915b50505050508152602001600382018054610cfb9061136e565b80601f0160208091040260200160405190810160405280929190818152602001828054610d279061136e565b8015610d745780601f10610d4957610100808354040283529160200191610d74565b820191906000526020600020905b815481529060010190602001808311610d5757829003601f168201915b50505050508152602001600482018054610d8d9061136e565b80601f0160208091040260200160405190810160405280929190818152602001828054610db99061136e565b8015610e065780601f10610ddb57610100808354040283529160200191610e06565b820191906000526020600020905b815481529060010190602001808311610de957829003601f168201915b505050505081526020016005820154815250509050806000015181602001518260400151836060015184608001518560a00151965096509650965096509650509295509295509295565b60008054906101000a900473ffffffffffffffffffffffffffffffffffffffff1681565b6000604051905090565b600080fd5b600080fd5b600073ffffffffffffffffffffffffffffffffffffffff82169050919050565b6000610eb382610e88565b9050919050565b610ec381610ea8565b8114610ece57600080fd5b50565b600081359050610ee081610eba565b92915050565b600060208284031215610efc57610efb610e7e565b5b6000610f0a84828501610ed1565b91505092915050565b6000819050919050565b610f2681610f13565b82525050565b6000602082019050610f416000830184610f1d565b92915050565b610f5081610f13565b8114610f5b57600080fd5b50565b600081359050610f6d81610f47565b92915050565b60008060408385031215610f8a57610f89610e7e565b5b6000610f9885828601610ed1565b9250506020610fa985828601610f5e565b9150509250929050565b600081519050919050565b600082825260208201905092915050565b60005b83811015610fed578082015181840152602081019050610fd2565b60008484015250505050565b6000601f19601f8301169050919050565b600061101582610fb3565b61101f8185610fbe565b935061102f818560208601610fcf565b61103881610ff9565b840191505092915050565b600060c082019050818103600083015261105d818961100a565b90508181036020830152611071818861100a565b90508181036040830152611085818761100a565b90508181036060830152611099818661100a565b905081810360808301526110ad818561100a565b90506110bc60a0830184610f1d565b979650505050505050565b600080fd5b600080fd5b7f4e487b7100000000000000000000000000000000000000000000000000000000600052604160045260246000fd5b61110982610ff9565b810181811067ffffffffffffffff82111715611128576111276110d1565b5b80604052505050565b600061113b610e74565b90506111478282611100565b919050565b600067ffffffffffffffff821115611167576111666110d1565b5b61117082610ff9565b9050602081019050919050565b82818337600083830152505050565b600061119f61119a8461114c565b611131565b9050828152602081018484840111156111bb576111ba6110cc565b5b6111c684828561117d565b509392505050565b600082601f8301126111e3576111e26110c7565b5b81356111f384826020860161118c565b91505092915050565b60008060008060008060c0878903121561121957611218610e7e565b5b600061122789828a01610ed1565b965050602087013567ffffffffffffffff81111561124857611247610e83565b5b61125489828a016111ce565b955050604087013567ffffffffffffffff81111561127557611274610e83565b5b61128189828a016111ce565b945050606087013567ffffffffffffffff8111156112a2576112a1610e83565b5b6112ae89828a016111ce565b935050608087013567ffffffffffffffff8111156112cf576112ce610e83565b5b6112db89828a016111ce565b92505060a087013567ffffffffffffffff8111156112fc576112fb610e83565b5b61130889828a016111ce565b9150509295509295509295565b61131e81610ea8565b82525050565b60006020820190506113396000830184611315565b92915050565b7f4e487b7100000000000000000000000000000000000000000000000000000000600052602260045260246000fd5b6000600282049050600182168061138657607f821691505b6020821081036113995761139861133f565b5b50919050565b60008190508160005260206000209050919050565b60006020601f8301049050919050565b600082821b905092915050565b6000600883026114017fffffffffffffffffffffffffffffffffffffffffffffffffffffffffffffffff826113c4565b61140b86836113c4565b95508019841693508086168417925050509392505050565b6000819050919050565b600061144861144361143e84610f13565b611423565b610f13565b9050919050565b6000819050919050565b6114628361142d565b61147661146e8261144f565b8484546113d1565b825550505050565b600090565b61148b61147e565b611496818484611459565b505050565b5b818110156114ba576114af600082611483565b60018101905061149c565b5050565b601f8211156114ff576114d08161139f565b6114d9846113b4565b810160208510156114e8578190505b6114fc6114f4856113b4565b83018261149b565b50505b505050565b600082821c905092915050565b600061152260001984600802611504565b1980831691505092915050565b600061153b8383611511565b9150826002028217905092915050565b61155482610fb3565b67ffffffffffffffff81111561156d5761156c6110d1565b5b611577825461136e565b6115828282856114be565b600060209050601f8311600181146115b557600084156115a3578287015190505b6115ad858261152f565b865550611615565b601f1984166115c38661139f565b60005b828110156115eb578489015182556001820191506020850194506020810190506115c6565b868310156116085784890151611604601f891682611511565b8355505b6001600288020188555050505b505050505050565b7f4e6f207265636f72647320666f756e6420666f7220746869732061646472657360008201527f7300000000000000000000000000000000000000000000000000000000000000602082015250565b6000611679602183610fbe565b91506116848261161d565b604082019050919050565b600060208201905081810360008301526116a88161166c565b9050919050565b7f4e487b7100000000000000000000000000000000000000000000000000000000600052601160045260246000fd5b60006116e982610f13565b91506116f483610f13565b925082820390508181111561170c5761170b6116af565b5b92915050565b7f4e487b7100000000000000000000000000000000000000000000000000000000600052603260045260246000fd5b7f496e646578206f7574206f6620626f756e647300000000000000000000000000600082015250565b6000611777601383610fbe565b915061178282611741565b602082019050919050565b600060208201905081810360008301526117a68161176a565b905091905056fea2646970667358221220a4866ac1074323775b6393a9ee7f60e8f4f3b007636cf666c859b91e88f6148064736f6c63430008130033",
  "immutableReferences": {},
  "source": "// SPDX-License-Identifier: MIT\r\npragma solidity 0.8.19;\r\n\r\ncontract PatientRegistry {\r\n    address public admin;\r\n\r\n    constructor() {\r\n        admin = msg.sender; // The admin is the one who deploys the contract\r\n    }\r\n\r\n    struct Patient {\r\n        string firstName;\r\n        string lastName;\r\n        string contactNumber;\r\n        string gender;\r\n        string cancerType;\r\n        uint256 timestamp; // Add a timestamp to each record\r\n    }\r\n\r\n    mapping(address => Patient[]) public patientHistory; // Mapping to store patient history\r\n\r\n    function registerPatient(\r\n        address _patientAddress,\r\n        string memory _firstName,\r\n        string memory _lastName,\r\n        string memory _contactNumber,\r\n        string memory _gender,\r\n        string memory _cancerType\r\n    ) public {\r\n        Patient memory newPatient = Patient(\r\n            _firstName,\r\n            _lastName,\r\n            _contactNumber,\r\n            _gender,\r\n            _cancerType,\r\n            block.timestamp // Record the current block timestamp\r\n        );\r\n        patientHistory[_patientAddress].push(newPatient); // Append the new record to the history\r\n    }\r\n\r\n    function getLatestPatient(address _patientAddress)\r\n        public\r\n        view\r\n        returns (\r\n            string memory firstName,\r\n            string memory lastName,\r\n            string memory contactNumber,\r\n            string memory gender,\r\n            string memory cancerType,\r\n            uint256 timestamp\r\n        )\r\n    {\r\n        require(patientHistory[_patientAddress].length > 0, \"No records found for this address\");\r\n        Patient memory latestPatient = patientHistory[_patientAddress][patientHistory[_patientAddress].length - 1];\r\n        return (\r\n            latestPatient.firstName,\r\n            latestPatient.lastName,\r\n            latestPatient.contactNumber,\r\n            latestPatient.gender,\r\n            latestPatient.cancerType,\r\n            latestPatient.timestamp\r\n        );\r\n    }\r\n\r\n    function getPatientHistoryCount(address _patientAddress) public view returns (uint256) {\r\n        return patientHistory[_patientAddress].length;\r\n    }\r\n\r\n    function getPatientByIndex(address _patientAddress, uint256 index)\r\n        public\r\n        view\r\n        returns (\r\n            string memory firstName,\r\n            string memory lastName,\r\n            string memory contactNumber,\r\n            string memory gender,\r\n            string memory cancerType,\r\n            uint256 timestamp\r\n        )\r\n    {\r\n        require(index < patientHistory[_patientAddress].length, \"Index out of bounds\");\r\n        Patient memory patient = patientHistory[_patientAddress][index];\r\n        return (\r\n            patient.firstName,\r\n            patient.lastName,\r\n            patient.contactNumber,\r\n            patient.gender,\r\n            patient.cancerType,\r\n            patient.timestamp\r\n        );\r\n    }\r\n}\r\n",
  "sourcePath": "D:\\Dev\\Ethereum\\Cancer_v3\\contracts\\PatientRegistry.sol",
  "compiler": {
    "name": "solc",
    "version": "0.8.19+commit.7dd6d404.Emscripten.clang"
  },
  "schemaVersion": "3.4.16",
  "updatedAt": "2024-11-10T03:34:17.552Z",
  "networkType": "ethereum",
  "devdoc": {
    "kind": "dev",
    "methods": {},
    "version": 1
  },
  "userdoc": {
    "kind": "user",
    "methods": {},
    "version": 1
  }
}