{
  "contractName": "PatientRegistry",
  "abi": [
    {
      "anonymous": false,
      "inputs": [
        {
          "indexed": true,
          "internalType": "address",
          "name": "patientAddress",
          "type": "address"
        },
        {
          "indexed": false,
          "internalType": "string",
          "name": "dataHash",
          "type": "string"
        },
        {
          "indexed": false,
          "internalType": "uint256",
          "name": "timestamp",
          "type": "uint256"
        }
      ],
      "name": "PatientRegistered",
      "type": "event"
    },
    {
      "inputs": [
        {
          "internalType": "address",
          "name": "patientAddress",
          "type": "address"
        },
        {
          "internalType": "string",
          "name": "dataHash",
          "type": "string"
        }
      ],
      "name": "registerPatient",
      "outputs": [],
      "stateMutability": "nonpayable",
      "type": "function"
    },
    {
      "inputs": [
        {
          "internalType": "address",
          "name": "patientAddress",
          "type": "address"
        }
      ],
      "name": "getPatientRecords",
      "outputs": [
        {
          "components": [
            {
              "internalType": "string",
              "name": "dataHash",
              "type": "string"
            },
            {
              "internalType": "uint256",
              "name": "timestamp",
              "type": "uint256"
            }
          ],
          "internalType": "struct PatientRegistry.PatientRecord[]",
          "name": "",
          "type": "tuple[]"
        }
      ],
      "stateMutability": "view",
      "type": "function",
      "constant": true
    }
  ],
  "bytecode": "0x608060405234801561001057600080fd5b50610a4f806100206000396000f3fe608060405234801561001057600080fd5b50600436106100365760003560e01c806318bd48471461003b5780638048c2f01461006b575b600080fd5b6100556004803603810190610050919061032a565b610087565b60405161006291906104ff565b60405180910390f35b61008560048036038101906100809190610656565b6101c0565b005b60606000808373ffffffffffffffffffffffffffffffffffffffff1673ffffffffffffffffffffffffffffffffffffffff168152602001908152602001600020805480602002602001604051908101604052809291908181526020016000905b828210156101b5578382906000526020600020906002020160405180604001604052908160008201805461011a906106e1565b80601f0160208091040260200160405190810160405280929190818152602001828054610146906106e1565b80156101935780601f1061016857610100808354040283529160200191610193565b820191906000526020600020905b81548152906001019060200180831161017657829003601f168201915b50505050508152602001600182015481525050815260200190600101906100e7565b505050509050919050565b600060405180604001604052808381526020014281525090506000808473ffffffffffffffffffffffffffffffffffffffff1673ffffffffffffffffffffffffffffffffffffffff168152602001908152602001600020819080600181540180825580915050600190039060005260206000209060020201600090919091909150600082015181600001908161025691906108be565b506020820151816001015550508273ffffffffffffffffffffffffffffffffffffffff167f096f893428730b9f440cde9930f6fbd450ce2d7ac1f2895f0d869da7376a36d183426040516102ab9291906109e9565b60405180910390a2505050565b6000604051905090565b600080fd5b600080fd5b600073ffffffffffffffffffffffffffffffffffffffff82169050919050565b60006102f7826102cc565b9050919050565b610307816102ec565b811461031257600080fd5b50565b600081359050610324816102fe565b92915050565b6000602082840312156103405761033f6102c2565b5b600061034e84828501610315565b91505092915050565b600081519050919050565b600082825260208201905092915050565b6000819050602082019050919050565b600081519050919050565b600082825260208201905092915050565b60005b838110156103bd5780820151818401526020810190506103a2565b60008484015250505050565b6000601f19601f8301169050919050565b60006103e582610383565b6103ef818561038e565b93506103ff81856020860161039f565b610408816103c9565b840191505092915050565b6000819050919050565b61042681610413565b82525050565b6000604083016000830151848203600086015261044982826103da565b915050602083015161045e602086018261041d565b508091505092915050565b6000610475838361042c565b905092915050565b6000602082019050919050565b600061049582610357565b61049f8185610362565b9350836020820285016104b185610373565b8060005b858110156104ed57848403895281516104ce8582610469565b94506104d98361047d565b925060208a019950506001810190506104b5565b50829750879550505050505092915050565b60006020820190508181036000830152610519818461048a565b905092915050565b600080fd5b600080fd5b7f4e487b7100000000000000000000000000000000000000000000000000000000600052604160045260246000fd5b610563826103c9565b810181811067ffffffffffffffff821117156105825761058161052b565b5b80604052505050565b60006105956102b8565b90506105a1828261055a565b919050565b600067ffffffffffffffff8211156105c1576105c061052b565b5b6105ca826103c9565b9050602081019050919050565b82818337600083830152505050565b60006105f96105f4846105a6565b61058b565b90508281526020810184848401111561061557610614610526565b5b6106208482856105d7565b509392505050565b600082601f83011261063d5761063c610521565b5b813561064d8482602086016105e6565b91505092915050565b6000806040838503121561066d5761066c6102c2565b5b600061067b85828601610315565b925050602083013567ffffffffffffffff81111561069c5761069b6102c7565b5b6106a885828601610628565b9150509250929050565b7f4e487b7100000000000000000000000000000000000000000000000000000000600052602260045260246000fd5b600060028204905060018216806106f957607f821691505b60208210810361070c5761070b6106b2565b5b50919050565b60008190508160005260206000209050919050565b60006020601f8301049050919050565b600082821b905092915050565b6000600883026107747fffffffffffffffffffffffffffffffffffffffffffffffffffffffffffffffff82610737565b61077e8683610737565b95508019841693508086168417925050509392505050565b6000819050919050565b60006107bb6107b66107b184610413565b610796565b610413565b9050919050565b6000819050919050565b6107d5836107a0565b6107e96107e1826107c2565b848454610744565b825550505050565b600090565b6107fe6107f1565b6108098184846107cc565b505050565b5b8181101561082d576108226000826107f6565b60018101905061080f565b5050565b601f8211156108725761084381610712565b61084c84610727565b8101602085101561085b578190505b61086f61086785610727565b83018261080e565b50505b505050565b600082821c905092915050565b600061089560001984600802610877565b1980831691505092915050565b60006108ae8383610884565b9150826002028217905092915050565b6108c782610383565b67ffffffffffffffff8111156108e0576108df61052b565b5b6108ea82546106e1565b6108f5828285610831565b600060209050601f8311600181146109285760008415610916578287015190505b61092085826108a2565b865550610988565b601f19841661093686610712565b60005b8281101561095e57848901518255600182019150602085019450602081019050610939565b8683101561097b5784890151610977601f891682610884565b8355505b6001600288020188555050505b505050505050565b600082825260208201905092915050565b60006109ac82610383565b6109b68185610990565b93506109c681856020860161039f565b6109cf816103c9565b840191505092915050565b6109e381610413565b82525050565b60006040820190508181036000830152610a0381856109a1565b9050610a1260208301846109da565b939250505056fea2646970667358221220e62b60d98e03ee8ebed924546cb0489984454cd29b67ba6158eb9b80aef3705a64736f6c63430008130033",
  "immutableReferences": {},
  "source": "// SPDX-License-Identifier: MIT\r\npragma solidity ^0.8.19;\r\n\r\ncontract PatientRegistry {\r\n    struct PatientRecord {\r\n        string dataHash;\r\n        uint256 timestamp;\r\n    }\r\n    \r\n    mapping(address => PatientRecord[]) private patientRecords;\r\n    \r\n    event PatientRegistered(address indexed patientAddress, string dataHash, uint256 timestamp);\r\n\r\n    function registerPatient(address patientAddress, string memory dataHash) public {\r\n        PatientRecord memory newRecord = PatientRecord({\r\n            dataHash: dataHash,\r\n            timestamp: block.timestamp\r\n        });\r\n        \r\n        patientRecords[patientAddress].push(newRecord);\r\n        \r\n        emit PatientRegistered(patientAddress, dataHash, block.timestamp);\r\n    }\r\n\r\n    function getPatientRecords(address patientAddress) public view returns (PatientRecord[] memory) {\r\n        return patientRecords[patientAddress];\r\n    }\r\n}",
  "sourcePath": "D:\\Dev\\Ethereum\\Cancer_v3\\contracts\\PatientRegistry.sol",
  "compiler": {
    "name": "solc",
    "version": "0.8.19+commit.7dd6d404.Emscripten.clang"
  },
  "schemaVersion": "3.4.16",
  "updatedAt": "2024-12-24T11:08:08.797Z",
  "networkType": "ethereum",
  "devdoc": {
    "kind": "dev",
    "methods": {},
    "version": 1
  },
  "userdoc": {
    "kind": "user",
    "methods": {},
    "version": 1
  }
}