{
  "contractName": "CancerPatientData",
  "abi": [
    {
      "anonymous": false,
      "inputs": [
        {
          "indexed": false,
          "internalType": "string",
          "name": "firstName",
          "type": "string"
        },
        {
          "indexed": false,
          "internalType": "string",
          "name": "lastName",
          "type": "string"
        },
        {
          "indexed": false,
          "internalType": "string",
          "name": "contactNumber",
          "type": "string"
        },
        {
          "indexed": false,
          "internalType": "string",
          "name": "gender",
          "type": "string"
        },
        {
          "indexed": false,
          "internalType": "string",
          "name": "cancerType",
          "type": "string"
        }
      ],
      "name": "NewPatientAdded",
      "type": "event"
    },
    {
      "inputs": [
        {
          "internalType": "uint256",
          "name": "",
          "type": "uint256"
        }
      ],
      "name": "patients",
      "outputs": [
        {
          "internalType": "string",
          "name": "firstName",
          "type": "string"
        },
        {
          "internalType": "string",
          "name": "lastName",
          "type": "string"
        },
        {
          "internalType": "string",
          "name": "contactNumber",
          "type": "string"
        },
        {
          "internalType": "string",
          "name": "gender",
          "type": "string"
        },
        {
          "internalType": "string",
          "name": "cancerType",
          "type": "string"
        }
      ],
      "stateMutability": "view",
      "type": "function",
      "constant": true
    },
    {
      "inputs": [
        {
          "internalType": "string",
          "name": "_firstName",
          "type": "string"
        },
        {
          "internalType": "string",
          "name": "_lastName",
          "type": "string"
        },
        {
          "internalType": "string",
          "name": "_contactNumber",
          "type": "string"
        },
        {
          "internalType": "string",
          "name": "_gender",
          "type": "string"
        },
        {
          "internalType": "string",
          "name": "_cancerType",
          "type": "string"
        }
      ],
      "name": "addPatient",
      "outputs": [],
      "stateMutability": "nonpayable",
      "type": "function"
    },
    {
      "inputs": [],
      "name": "getPatientCount",
      "outputs": [
        {
          "internalType": "uint256",
          "name": "",
          "type": "uint256"
        }
      ],
      "stateMutability": "view",
      "type": "function",
      "constant": true
    },
    {
      "inputs": [
        {
          "internalType": "uint256",
          "name": "index",
          "type": "uint256"
        }
      ],
      "name": "getPatient",
      "outputs": [
        {
          "internalType": "string",
          "name": "",
          "type": "string"
        },
        {
          "internalType": "string",
          "name": "",
          "type": "string"
        },
        {
          "internalType": "string",
          "name": "",
          "type": "string"
        },
        {
          "internalType": "string",
          "name": "",
          "type": "string"
        },
        {
          "internalType": "string",
          "name": "",
          "type": "string"
        }
      ],
      "stateMutability": "view",
      "type": "function",
      "constant": true
    }
  ],
  "bytecode": "0x608060405234801561001057600080fd5b5061100d806100206000396000f3fe608060405234801561001057600080fd5b506004361061004c5760003560e01c806356fa8217146100515780637d3a67961461006d57806393119a83146100a1578063c190665b146100d5575b600080fd5b61006b600480360381019061006691906109d5565b6100f3565b005b61008760048036038101906100829190610b12565b6101fb565b604051610098959493929190610bbe565b60405180910390f35b6100bb60048036038101906100b69190610b12565b610581565b6040516100cc959493929190610bbe565b60405180910390f35b6100dd61086f565b6040516100ea9190610c43565b60405180910390f35b60006040518060a00160405280878152602001868152602001858152602001848152602001838152509080600181540180825580915050600190039060005260206000209060050201600090919091909150600082015181600001908161015a9190610e6a565b5060208201518160010190816101709190610e6a565b5060408201518160020190816101869190610e6a565b50606082015181600301908161019c9190610e6a565b5060808201518160040190816101b29190610e6a565b5050507f06e8e43f7b56d21341408aa5f70b229f8cae644e99627e5b40ff6231ef7e0a4a85858585856040516101ec959493929190610bbe565b60405180910390a15050505050565b6060806060806060600080549050861061024a576040517f08c379a000000000000000000000000000000000000000000000000000000000815260040161024190610f88565b60405180910390fd5b600080878154811061025f5761025e610fa8565b5b90600052602060002090600502016040518060a001604052908160008201805461028890610c8d565b80601f01602080910402602001604051908101604052809291908181526020018280546102b490610c8d565b80156103015780601f106102d657610100808354040283529160200191610301565b820191906000526020600020905b8154815290600101906020018083116102e457829003601f168201915b5050505050815260200160018201805461031a90610c8d565b80601f016020809104026020016040519081016040528092919081815260200182805461034690610c8d565b80156103935780601f1061036857610100808354040283529160200191610393565b820191906000526020600020905b81548152906001019060200180831161037657829003601f168201915b505050505081526020016002820180546103ac90610c8d565b80601f01602080910402602001604051908101604052809291908181526020018280546103d890610c8d565b80156104255780601f106103fa57610100808354040283529160200191610425565b820191906000526020600020905b81548152906001019060200180831161040857829003601f168201915b5050505050815260200160038201805461043e90610c8d565b80601f016020809104026020016040519081016040528092919081815260200182805461046a90610c8d565b80156104b75780601f1061048c576101008083540402835291602001916104b7565b820191906000526020600020905b81548152906001019060200180831161049a57829003601f168201915b505050505081526020016004820180546104d090610c8d565b80601f01602080910402602001604051908101604052809291908181526020018280546104fc90610c8d565b80156105495780601f1061051e57610100808354040283529160200191610549565b820191906000526020600020905b81548152906001019060200180831161052c57829003601f168201915b505050505081525050905080600001518160200151826040015183606001518460800151955095509550955095505091939590929450565b6000818154811061059157600080fd5b90600052602060002090600502016000915090508060000180546105b490610c8d565b80601f01602080910402602001604051908101604052809291908181526020018280546105e090610c8d565b801561062d5780601f106106025761010080835404028352916020019161062d565b820191906000526020600020905b81548152906001019060200180831161061057829003601f168201915b50505050509080600101805461064290610c8d565b80601f016020809104026020016040519081016040528092919081815260200182805461066e90610c8d565b80156106bb5780601f10610690576101008083540402835291602001916106bb565b820191906000526020600020905b81548152906001019060200180831161069e57829003601f168201915b5050505050908060020180546106d090610c8d565b80601f01602080910402602001604051908101604052809291908181526020018280546106fc90610c8d565b80156107495780601f1061071e57610100808354040283529160200191610749565b820191906000526020600020905b81548152906001019060200180831161072c57829003601f168201915b50505050509080600301805461075e90610c8d565b80601f016020809104026020016040519081016040528092919081815260200182805461078a90610c8d565b80156107d75780601f106107ac576101008083540402835291602001916107d7565b820191906000526020600020905b8154815290600101906020018083116107ba57829003601f168201915b5050505050908060040180546107ec90610c8d565b80601f016020809104026020016040519081016040528092919081815260200182805461081890610c8d565b80156108655780601f1061083a57610100808354040283529160200191610865565b820191906000526020600020905b81548152906001019060200180831161084857829003601f168201915b5050505050905085565b60008080549050905090565b6000604051905090565b600080fd5b600080fd5b600080fd5b600080fd5b6000601f19601f8301169050919050565b7f4e487b7100000000000000000000000000000000000000000000000000000000600052604160045260246000fd5b6108e282610899565b810181811067ffffffffffffffff82111715610901576109006108aa565b5b80604052505050565b600061091461087b565b905061092082826108d9565b919050565b600067ffffffffffffffff8211156109405761093f6108aa565b5b61094982610899565b9050602081019050919050565b82818337600083830152505050565b600061097861097384610925565b61090a565b90508281526020810184848401111561099457610993610894565b5b61099f848285610956565b509392505050565b600082601f8301126109bc576109bb61088f565b5b81356109cc848260208601610965565b91505092915050565b600080600080600060a086880312156109f1576109f0610885565b5b600086013567ffffffffffffffff811115610a0f57610a0e61088a565b5b610a1b888289016109a7565b955050602086013567ffffffffffffffff811115610a3c57610a3b61088a565b5b610a48888289016109a7565b945050604086013567ffffffffffffffff811115610a6957610a6861088a565b5b610a75888289016109a7565b935050606086013567ffffffffffffffff811115610a9657610a9561088a565b5b610aa2888289016109a7565b925050608086013567ffffffffffffffff811115610ac357610ac261088a565b5b610acf888289016109a7565b9150509295509295909350565b6000819050919050565b610aef81610adc565b8114610afa57600080fd5b50565b600081359050610b0c81610ae6565b92915050565b600060208284031215610b2857610b27610885565b5b6000610b3684828501610afd565b91505092915050565b600081519050919050565b600082825260208201905092915050565b60005b83811015610b79578082015181840152602081019050610b5e565b60008484015250505050565b6000610b9082610b3f565b610b9a8185610b4a565b9350610baa818560208601610b5b565b610bb381610899565b840191505092915050565b600060a0820190508181036000830152610bd88188610b85565b90508181036020830152610bec8187610b85565b90508181036040830152610c008186610b85565b90508181036060830152610c148185610b85565b90508181036080830152610c288184610b85565b90509695505050505050565b610c3d81610adc565b82525050565b6000602082019050610c586000830184610c34565b92915050565b7f4e487b7100000000000000000000000000000000000000000000000000000000600052602260045260246000fd5b60006002820490506001821680610ca557607f821691505b602082108103610cb857610cb7610c5e565b5b50919050565b60008190508160005260206000209050919050565b60006020601f8301049050919050565b600082821b905092915050565b600060088302610d207fffffffffffffffffffffffffffffffffffffffffffffffffffffffffffffffff82610ce3565b610d2a8683610ce3565b95508019841693508086168417925050509392505050565b6000819050919050565b6000610d67610d62610d5d84610adc565b610d42565b610adc565b9050919050565b6000819050919050565b610d8183610d4c565b610d95610d8d82610d6e565b848454610cf0565b825550505050565b600090565b610daa610d9d565b610db5818484610d78565b505050565b5b81811015610dd957610dce600082610da2565b600181019050610dbb565b5050565b601f821115610e1e57610def81610cbe565b610df884610cd3565b81016020851015610e07578190505b610e1b610e1385610cd3565b830182610dba565b50505b505050565b600082821c905092915050565b6000610e4160001984600802610e23565b1980831691505092915050565b6000610e5a8383610e30565b9150826002028217905092915050565b610e7382610b3f565b67ffffffffffffffff811115610e8c57610e8b6108aa565b5b610e968254610c8d565b610ea1828285610ddd565b600060209050601f831160018114610ed45760008415610ec2578287015190505b610ecc8582610e4e565b865550610f34565b601f198416610ee286610cbe565b60005b82811015610f0a57848901518255600182019150602085019450602081019050610ee5565b86831015610f275784890151610f23601f891682610e30565b8355505b6001600288020188555050505b505050505050565b7f50617469656e7420696e646578206f7574206f6620626f756e64730000000000600082015250565b6000610f72601b83610b4a565b9150610f7d82610f3c565b602082019050919050565b60006020820190508181036000830152610fa181610f65565b9050919050565b7f4e487b7100000000000000000000000000000000000000000000000000000000600052603260045260246000fdfea264697066735822122036f8701c26424e5cff5974fa43038717b663060f201660a98df6aacc460ea28464736f6c63430008130033",
  "immutableReferences": {},
  "source": "// SPDX-License-Identifier: MIT\r\npragma solidity ^0.8.19;\r\n\r\ncontract CancerPatientData {\r\n    // Define a struct to hold patient data\r\n    struct Patient {\r\n        string firstName;\r\n        string lastName;\r\n        string contactNumber;\r\n        string gender;\r\n        string cancerType;\r\n    }\r\n\r\n    // Array to store all patients\r\n    Patient[] public patients;\r\n\r\n    // Event to emit when a new patient is added\r\n    event NewPatientAdded(\r\n        string firstName,\r\n        string lastName,\r\n        string contactNumber,\r\n        string gender,\r\n        string cancerType\r\n    );\r\n\r\n    // Function to add a new patient\r\n    function addPatient(\r\n        string memory _firstName,\r\n        string memory _lastName,\r\n        string memory _contactNumber,\r\n        string memory _gender,\r\n        string memory _cancerType\r\n    ) public {\r\n        // Create a new patient and add it to the array\r\n        patients.push(Patient(_firstName, _lastName, _contactNumber, _gender, _cancerType));\r\n\r\n        // Emit the event\r\n        emit NewPatientAdded(_firstName, _lastName, _contactNumber, _gender, _cancerType);\r\n    }\r\n\r\n    // Function to get the number of patients\r\n    function getPatientCount() public view returns (uint256) {\r\n        return patients.length;\r\n    }\r\n\r\n    // Function to get patient data by index\r\n    function getPatient(uint256 index) public view returns (string memory, string memory, string memory, string memory, string memory) {\r\n        require(index < patients.length, \"Patient index out of bounds\");\r\n        Patient memory patient = patients[index];\r\n        return (patient.firstName, patient.lastName, patient.contactNumber, patient.gender, patient.cancerType);\r\n    }\r\n}\r\n",
  "sourcePath": "C:\\blockchain\\Ethereum\\Cancer_Patient_Data_Management\\contracts\\CancerPatientData.sol",
  "compiler": {
    "name": "solc",
    "version": "0.8.19+commit.7dd6d404.Emscripten.clang"
  },
  "schemaVersion": "3.4.16",
  "updatedAt": "2024-10-17T13:20:59.267Z",
  "networkType": "ethereum",
  "devdoc": {
    "kind": "dev",
    "methods": {},
    "version": 1
  },
  "userdoc": {
    "kind": "user",
    "methods": {},
    "version": 1
  }
}