{
  "contractName": "CancerPatientData",
  "abi": [
    {
      "inputs": [],
      "stateMutability": "nonpayable",
      "type": "constructor"
    },
    {
      "anonymous": false,
      "inputs": [
        {
          "indexed": false,
          "internalType": "string",
          "name": "firstName",
          "type": "string"
        },
        {
          "indexed": false,
          "internalType": "string",
          "name": "lastName",
          "type": "string"
        },
        {
          "indexed": false,
          "internalType": "string",
          "name": "gender",
          "type": "string"
        }
      ],
      "name": "PatientRegistered",
      "type": "event"
    },
    {
      "inputs": [],
      "name": "admin",
      "outputs": [
        {
          "internalType": "address",
          "name": "",
          "type": "address"
        }
      ],
      "stateMutability": "view",
      "type": "function",
      "constant": true
    },
    {
      "inputs": [
        {
          "internalType": "uint256",
          "name": "",
          "type": "uint256"
        }
      ],
      "name": "patients",
      "outputs": [
        {
          "internalType": "string",
          "name": "firstName",
          "type": "string"
        },
        {
          "internalType": "string",
          "name": "lastName",
          "type": "string"
        },
        {
          "internalType": "string",
          "name": "gender",
          "type": "string"
        }
      ],
      "stateMutability": "view",
      "type": "function",
      "constant": true
    },
    {
      "inputs": [
        {
          "internalType": "address",
          "name": "",
          "type": "address"
        }
      ],
      "name": "registeredPatients",
      "outputs": [
        {
          "internalType": "bool",
          "name": "",
          "type": "bool"
        }
      ],
      "stateMutability": "view",
      "type": "function",
      "constant": true
    },
    {
      "inputs": [
        {
          "internalType": "address",
          "name": "_patientAddress",
          "type": "address"
        },
        {
          "internalType": "string",
          "name": "_firstName",
          "type": "string"
        },
        {
          "internalType": "string",
          "name": "_lastName",
          "type": "string"
        },
        {
          "internalType": "string",
          "name": "_gender",
          "type": "string"
        }
      ],
      "name": "registerPatient",
      "outputs": [],
      "stateMutability": "nonpayable",
      "type": "function"
    },
    {
      "inputs": [
        {
          "internalType": "uint256",
          "name": "_patientId",
          "type": "uint256"
        }
      ],
      "name": "getPatient",
      "outputs": [
        {
          "internalType": "string",
          "name": "firstName",
          "type": "string"
        },
        {
          "internalType": "string",
          "name": "lastName",
          "type": "string"
        },
        {
          "internalType": "string",
          "name": "gender",
          "type": "string"
        }
      ],
      "stateMutability": "view",
      "type": "function",
      "constant": true
    }
  ],
  "bytecode": "0x608060405234801561001057600080fd5b50336000806101000a81548173ffffffffffffffffffffffffffffffffffffffff021916908373ffffffffffffffffffffffffffffffffffffffff1602179055506110a9806100606000396000f3fe608060405234801561001057600080fd5b50600436106100575760003560e01c80637d3a67961461005c57806393119a831461008e5780639cdaaad8146100c0578063cf2a221b146100f0578063f851a4401461010c575b600080fd5b61007660048036038101906100719190610818565b61012a565b604051610085939291906108d5565b60405180910390f35b6100a860048036038101906100a39190610818565b61037a565b6040516100b7939291906108d5565b60405180910390f35b6100da60048036038101906100d5919061097f565b61054c565b6040516100e791906109c7565b60405180910390f35b61010a60048036038101906101059190610b17565b61056c565b005b6101146107aa565b6040516101219190610be1565b60405180910390f35b60608060606001805490508410610176576040517f08c379a000000000000000000000000000000000000000000000000000000000815260040161016d90610c48565b60405180910390fd5b60006001858154811061018c5761018b610c68565b5b90600052602060002090600302016040518060600160405290816000820180546101b590610cc6565b80601f01602080910402602001604051908101604052809291908181526020018280546101e190610cc6565b801561022e5780601f106102035761010080835404028352916020019161022e565b820191906000526020600020905b81548152906001019060200180831161021157829003601f168201915b5050505050815260200160018201805461024790610cc6565b80601f016020809104026020016040519081016040528092919081815260200182805461027390610cc6565b80156102c05780601f10610295576101008083540402835291602001916102c0565b820191906000526020600020905b8154815290600101906020018083116102a357829003601f168201915b505050505081526020016002820180546102d990610cc6565b80601f016020809104026020016040519081016040528092919081815260200182805461030590610cc6565b80156103525780601f1061032757610100808354040283529160200191610352565b820191906000526020600020905b81548152906001019060200180831161033557829003601f168201915b5050505050815250509050806000015181602001518260400151935093509350509193909250565b6001818154811061038a57600080fd5b90600052602060002090600302016000915090508060000180546103ad90610cc6565b80601f01602080910402602001604051908101604052809291908181526020018280546103d990610cc6565b80156104265780601f106103fb57610100808354040283529160200191610426565b820191906000526020600020905b81548152906001019060200180831161040957829003601f168201915b50505050509080600101805461043b90610cc6565b80601f016020809104026020016040519081016040528092919081815260200182805461046790610cc6565b80156104b45780601f10610489576101008083540402835291602001916104b4565b820191906000526020600020905b81548152906001019060200180831161049757829003601f168201915b5050505050908060020180546104c990610cc6565b80601f01602080910402602001604051908101604052809291908181526020018280546104f590610cc6565b80156105425780601f1061051757610100808354040283529160200191610542565b820191906000526020600020905b81548152906001019060200180831161052557829003601f168201915b5050505050905083565b60026020528060005260406000206000915054906101000a900460ff1681565b60008054906101000a900473ffffffffffffffffffffffffffffffffffffffff1673ffffffffffffffffffffffffffffffffffffffff163373ffffffffffffffffffffffffffffffffffffffff16146105fa576040517f08c379a00000000000000000000000000000000000000000000000000000000081526004016105f190610d69565b60405180910390fd5b600260008573ffffffffffffffffffffffffffffffffffffffff1673ffffffffffffffffffffffffffffffffffffffff16815260200190815260200160002060009054906101000a900460ff1615610687576040517f08c379a000000000000000000000000000000000000000000000000000000000815260040161067e90610dd5565b60405180910390fd5b6001604051806060016040528085815260200184815260200183815250908060018154018082558091505060019003906000526020600020906003020160009091909190915060008201518160000190816106e29190610fa1565b5060208201518160010190816106f89190610fa1565b50604082015181600201908161070e9190610fa1565b5050506001600260008673ffffffffffffffffffffffffffffffffffffffff1673ffffffffffffffffffffffffffffffffffffffff16815260200190815260200160002060006101000a81548160ff0219169083151502179055507f27043f7352f820770c3d4dd525f578705f863921193c72da88af575d356cb48183838360405161079c939291906108d5565b60405180910390a150505050565b60008054906101000a900473ffffffffffffffffffffffffffffffffffffffff1681565b6000604051905090565b600080fd5b600080fd5b6000819050919050565b6107f5816107e2565b811461080057600080fd5b50565b600081359050610812816107ec565b92915050565b60006020828403121561082e5761082d6107d8565b5b600061083c84828501610803565b91505092915050565b600081519050919050565b600082825260208201905092915050565b60005b8381101561087f578082015181840152602081019050610864565b60008484015250505050565b6000601f19601f8301169050919050565b60006108a782610845565b6108b18185610850565b93506108c1818560208601610861565b6108ca8161088b565b840191505092915050565b600060608201905081810360008301526108ef818661089c565b90508181036020830152610903818561089c565b90508181036040830152610917818461089c565b9050949350505050565b600073ffffffffffffffffffffffffffffffffffffffff82169050919050565b600061094c82610921565b9050919050565b61095c81610941565b811461096757600080fd5b50565b60008135905061097981610953565b92915050565b600060208284031215610995576109946107d8565b5b60006109a38482850161096a565b91505092915050565b60008115159050919050565b6109c1816109ac565b82525050565b60006020820190506109dc60008301846109b8565b92915050565b600080fd5b600080fd5b7f4e487b7100000000000000000000000000000000000000000000000000000000600052604160045260246000fd5b610a248261088b565b810181811067ffffffffffffffff82111715610a4357610a426109ec565b5b80604052505050565b6000610a566107ce565b9050610a628282610a1b565b919050565b600067ffffffffffffffff821115610a8257610a816109ec565b5b610a8b8261088b565b9050602081019050919050565b82818337600083830152505050565b6000610aba610ab584610a67565b610a4c565b905082815260208101848484011115610ad657610ad56109e7565b5b610ae1848285610a98565b509392505050565b600082601f830112610afe57610afd6109e2565b5b8135610b0e848260208601610aa7565b91505092915050565b60008060008060808587031215610b3157610b306107d8565b5b6000610b3f8782880161096a565b945050602085013567ffffffffffffffff811115610b6057610b5f6107dd565b5b610b6c87828801610ae9565b935050604085013567ffffffffffffffff811115610b8d57610b8c6107dd565b5b610b9987828801610ae9565b925050606085013567ffffffffffffffff811115610bba57610bb96107dd565b5b610bc687828801610ae9565b91505092959194509250565b610bdb81610941565b82525050565b6000602082019050610bf66000830184610bd2565b92915050565b7f496e76616c69642070617469656e742049442e00000000000000000000000000600082015250565b6000610c32601383610850565b9150610c3d82610bfc565b602082019050919050565b60006020820190508181036000830152610c6181610c25565b9050919050565b7f4e487b7100000000000000000000000000000000000000000000000000000000600052603260045260246000fd5b7f4e487b7100000000000000000000000000000000000000000000000000000000600052602260045260246000fd5b60006002820490506001821680610cde57607f821691505b602082108103610cf157610cf0610c97565b5b50919050565b7f4f6e6c792061646d696e2063616e20706572666f726d2074686973206163746960008201527f6f6e2e0000000000000000000000000000000000000000000000000000000000602082015250565b6000610d53602383610850565b9150610d5e82610cf7565b604082019050919050565b60006020820190508181036000830152610d8281610d46565b9050919050565b7f50617469656e7420616c726561647920726567697374657265642e0000000000600082015250565b6000610dbf601b83610850565b9150610dca82610d89565b602082019050919050565b60006020820190508181036000830152610dee81610db2565b9050919050565b60008190508160005260206000209050919050565b60006020601f8301049050919050565b600082821b905092915050565b600060088302610e577fffffffffffffffffffffffffffffffffffffffffffffffffffffffffffffffff82610e1a565b610e618683610e1a565b95508019841693508086168417925050509392505050565b6000819050919050565b6000610e9e610e99610e94846107e2565b610e79565b6107e2565b9050919050565b6000819050919050565b610eb883610e83565b610ecc610ec482610ea5565b848454610e27565b825550505050565b600090565b610ee1610ed4565b610eec818484610eaf565b505050565b5b81811015610f1057610f05600082610ed9565b600181019050610ef2565b5050565b601f821115610f5557610f2681610df5565b610f2f84610e0a565b81016020851015610f3e578190505b610f52610f4a85610e0a565b830182610ef1565b50505b505050565b600082821c905092915050565b6000610f7860001984600802610f5a565b1980831691505092915050565b6000610f918383610f67565b9150826002028217905092915050565b610faa82610845565b67ffffffffffffffff811115610fc357610fc26109ec565b5b610fcd8254610cc6565b610fd8828285610f14565b600060209050601f83116001811461100b5760008415610ff9578287015190505b6110038582610f85565b86555061106b565b601f19841661101986610df5565b60005b828110156110415784890151825560018201915060208501945060208101905061101c565b8683101561105e578489015161105a601f891682610f67565b8355505b6001600288020188555050505b50505050505056fea264697066735822122043039e9841bee59ee22418fe13d0b3d334dbb6697f92e985597cc002742bce4f64736f6c63430008130033",
  "immutableReferences": {},
  "source": "// SPDX-License-Identifier: MIT\r\npragma solidity 0.8.19;\r\n\r\ncontract CancerPatientData {\r\n\r\n    address public admin;\r\n\r\n    constructor() {\r\n        admin = msg.sender; // The deployer of the contract becomes the admin\r\n    }\r\n\r\n    modifier onlyAdmin() {\r\n        require(msg.sender == admin, \"Only admin can perform this action.\");\r\n        _;\r\n    }\r\n\r\n    struct Patient {\r\n        string firstName;\r\n        string lastName;\r\n        string gender;\r\n    }\r\n\r\n    Patient[] public patients;\r\n\r\n    mapping(address => bool) public registeredPatients;\r\n\r\n    event PatientRegistered(\r\n        string firstName,\r\n        string lastName,\r\n        string gender\r\n    );\r\n\r\n    function registerPatient(\r\n        address _patientAddress,\r\n        string memory _firstName,\r\n        string memory _lastName,\r\n        string memory _gender\r\n    ) public onlyAdmin {\r\n        require(!registeredPatients[_patientAddress], \"Patient already registered.\");\r\n        patients.push(Patient(\r\n            _firstName,\r\n            _lastName,\r\n            _gender\r\n        ));\r\n        registeredPatients[_patientAddress] = true;\r\n        emit PatientRegistered(\r\n            _firstName,\r\n            _lastName,\r\n            _gender\r\n        );\r\n    }\r\n\r\n    function getPatient(uint256 _patientId) public view returns (\r\n        string memory firstName,\r\n        string memory lastName,\r\n        string memory gender\r\n    ) {\r\n        require(_patientId < patients.length, \"Invalid patient ID.\");\r\n        Patient memory patient = patients[_patientId];\r\n        return (\r\n            patient.firstName,\r\n            patient.lastName,\r\n            patient.gender\r\n        );\r\n    }\r\n}\r\n",
  "sourcePath": "C:\\blockchain\\Ethereum\\Cancer_Patient_Data_Management\\contracts\\CancerPatient.sol",
  "compiler": {
    "name": "solc",
    "version": "0.8.19+commit.7dd6d404.Emscripten.clang"
  },
  "schemaVersion": "3.4.16",
  "updatedAt": "2024-10-14T14:38:42.253Z",
  "networkType": "ethereum",
  "devdoc": {
    "kind": "dev",
    "methods": {},
    "version": 1
  },
  "userdoc": {
    "kind": "user",
    "methods": {},
    "version": 1
  }
}