{
  "contractName": "PatientDataStorage",
  "abi": [
    {
      "anonymous": false,
      "inputs": [
        {
          "indexed": true,
          "internalType": "address",
          "name": "patientAddress",
          "type": "address"
        },
        {
          "indexed": false,
          "internalType": "string",
          "name": "firstName",
          "type": "string"
        },
        {
          "indexed": false,
          "internalType": "string",
          "name": "lastName",
          "type": "string"
        }
      ],
      "name": "PatientDataStored",
      "type": "event"
    },
    {
      "inputs": [
        {
          "internalType": "address",
          "name": "",
          "type": "address"
        }
      ],
      "name": "patients",
      "outputs": [
        {
          "internalType": "string",
          "name": "firstName",
          "type": "string"
        },
        {
          "internalType": "string",
          "name": "lastName",
          "type": "string"
        },
        {
          "internalType": "string",
          "name": "contactNumber",
          "type": "string"
        },
        {
          "internalType": "string",
          "name": "cancerType",
          "type": "string"
        }
      ],
      "stateMutability": "view",
      "type": "function",
      "constant": true
    },
    {
      "inputs": [
        {
          "internalType": "string",
          "name": "_firstName",
          "type": "string"
        },
        {
          "internalType": "string",
          "name": "_lastName",
          "type": "string"
        },
        {
          "internalType": "string",
          "name": "_contactNumber",
          "type": "string"
        },
        {
          "internalType": "string",
          "name": "_cancerType",
          "type": "string"
        }
      ],
      "name": "storePatientData",
      "outputs": [],
      "stateMutability": "nonpayable",
      "type": "function"
    },
    {
      "inputs": [
        {
          "internalType": "address",
          "name": "_patientAddress",
          "type": "address"
        }
      ],
      "name": "getPatientData",
      "outputs": [
        {
          "components": [
            {
              "internalType": "string",
              "name": "firstName",
              "type": "string"
            },
            {
              "internalType": "string",
              "name": "lastName",
              "type": "string"
            },
            {
              "internalType": "string",
              "name": "contactNumber",
              "type": "string"
            },
            {
              "internalType": "string",
              "name": "cancerType",
              "type": "string"
            }
          ],
          "internalType": "struct PatientDataStorage.Patient",
          "name": "",
          "type": "tuple"
        }
      ],
      "stateMutability": "view",
      "type": "function",
      "constant": true
    }
  ],
  "bytecode": "0x608060405234801561001057600080fd5b50610ec2806100206000396000f3fe608060405234801561001057600080fd5b50600436106100415760003560e01c80630869cfbc1461004657806348e8185214610079578063af250c05146100a9575b600080fd5b610060600480360381019061005b919061075f565b6100c5565b604051610070949392919061081c565b60405180910390f35b610093600480360381019061008e919061075f565b610315565b6040516100a0919061093f565b60405180910390f35b6100c360048036038101906100be9190610a96565b6105b5565b005b60006020528060005260406000206000915090508060000180546100e890610b9c565b80601f016020809104026020016040519081016040528092919081815260200182805461011490610b9c565b80156101615780601f1061013657610100808354040283529160200191610161565b820191906000526020600020905b81548152906001019060200180831161014457829003601f168201915b50505050509080600101805461017690610b9c565b80601f01602080910402602001604051908101604052809291908181526020018280546101a290610b9c565b80156101ef5780601f106101c4576101008083540402835291602001916101ef565b820191906000526020600020905b8154815290600101906020018083116101d257829003601f168201915b50505050509080600201805461020490610b9c565b80601f016020809104026020016040519081016040528092919081815260200182805461023090610b9c565b801561027d5780601f106102525761010080835404028352916020019161027d565b820191906000526020600020905b81548152906001019060200180831161026057829003601f168201915b50505050509080600301805461029290610b9c565b80601f01602080910402602001604051908101604052809291908181526020018280546102be90610b9c565b801561030b5780601f106102e05761010080835404028352916020019161030b565b820191906000526020600020905b8154815290600101906020018083116102ee57829003601f168201915b5050505050905084565b61031d6106c5565b6000808373ffffffffffffffffffffffffffffffffffffffff1673ffffffffffffffffffffffffffffffffffffffff16815260200190815260200160002060405180608001604052908160008201805461037690610b9c565b80601f01602080910402602001604051908101604052809291908181526020018280546103a290610b9c565b80156103ef5780601f106103c4576101008083540402835291602001916103ef565b820191906000526020600020905b8154815290600101906020018083116103d257829003601f168201915b5050505050815260200160018201805461040890610b9c565b80601f016020809104026020016040519081016040528092919081815260200182805461043490610b9c565b80156104815780601f1061045657610100808354040283529160200191610481565b820191906000526020600020905b81548152906001019060200180831161046457829003601f168201915b5050505050815260200160028201805461049a90610b9c565b80601f01602080910402602001604051908101604052809291908181526020018280546104c690610b9c565b80156105135780601f106104e857610100808354040283529160200191610513565b820191906000526020600020905b8154815290600101906020018083116104f657829003601f168201915b5050505050815260200160038201805461052c90610b9c565b80601f016020809104026020016040519081016040528092919081815260200182805461055890610b9c565b80156105a55780601f1061057a576101008083540402835291602001916105a5565b820191906000526020600020905b81548152906001019060200180831161058857829003601f168201915b5050505050815250509050919050565b6040518060800160405280858152602001848152602001838152602001828152506000803373ffffffffffffffffffffffffffffffffffffffff1673ffffffffffffffffffffffffffffffffffffffff16815260200190815260200160002060008201518160000190816106299190610d83565b50602082015181600101908161063f9190610d83565b5060408201518160020190816106559190610d83565b50606082015181600301908161066b9190610d83565b509050503373ffffffffffffffffffffffffffffffffffffffff167f72955531a3d003d6dac16930f2adf12aea37edd03e98dc86beeb1a9926fbb9af85856040516106b7929190610e55565b60405180910390a250505050565b6040518060800160405280606081526020016060815260200160608152602001606081525090565b6000604051905090565b600080fd5b600080fd5b600073ffffffffffffffffffffffffffffffffffffffff82169050919050565b600061072c82610701565b9050919050565b61073c81610721565b811461074757600080fd5b50565b60008135905061075981610733565b92915050565b600060208284031215610775576107746106f7565b5b60006107838482850161074a565b91505092915050565b600081519050919050565b600082825260208201905092915050565b60005b838110156107c65780820151818401526020810190506107ab565b60008484015250505050565b6000601f19601f8301169050919050565b60006107ee8261078c565b6107f88185610797565b93506108088185602086016107a8565b610811816107d2565b840191505092915050565b6000608082019050818103600083015261083681876107e3565b9050818103602083015261084a81866107e3565b9050818103604083015261085e81856107e3565b9050818103606083015261087281846107e3565b905095945050505050565b600082825260208201905092915050565b60006108998261078c565b6108a3818561087d565b93506108b38185602086016107a8565b6108bc816107d2565b840191505092915050565b600060808301600083015184820360008601526108e4828261088e565b915050602083015184820360208601526108fe828261088e565b91505060408301518482036040860152610918828261088e565b91505060608301518482036060860152610932828261088e565b9150508091505092915050565b6000602082019050818103600083015261095981846108c7565b905092915050565b600080fd5b600080fd5b7f4e487b7100000000000000000000000000000000000000000000000000000000600052604160045260246000fd5b6109a3826107d2565b810181811067ffffffffffffffff821117156109c2576109c161096b565b5b80604052505050565b60006109d56106ed565b90506109e1828261099a565b919050565b600067ffffffffffffffff821115610a0157610a0061096b565b5b610a0a826107d2565b9050602081019050919050565b82818337600083830152505050565b6000610a39610a34846109e6565b6109cb565b905082815260208101848484011115610a5557610a54610966565b5b610a60848285610a17565b509392505050565b600082601f830112610a7d57610a7c610961565b5b8135610a8d848260208601610a26565b91505092915050565b60008060008060808587031215610ab057610aaf6106f7565b5b600085013567ffffffffffffffff811115610ace57610acd6106fc565b5b610ada87828801610a68565b945050602085013567ffffffffffffffff811115610afb57610afa6106fc565b5b610b0787828801610a68565b935050604085013567ffffffffffffffff811115610b2857610b276106fc565b5b610b3487828801610a68565b925050606085013567ffffffffffffffff811115610b5557610b546106fc565b5b610b6187828801610a68565b91505092959194509250565b7f4e487b7100000000000000000000000000000000000000000000000000000000600052602260045260246000fd5b60006002820490506001821680610bb457607f821691505b602082108103610bc757610bc6610b6d565b5b50919050565b60008190508160005260206000209050919050565b60006020601f8301049050919050565b600082821b905092915050565b600060088302610c2f7fffffffffffffffffffffffffffffffffffffffffffffffffffffffffffffffff82610bf2565b610c398683610bf2565b95508019841693508086168417925050509392505050565b6000819050919050565b6000819050919050565b6000610c80610c7b610c7684610c51565b610c5b565b610c51565b9050919050565b6000819050919050565b610c9a83610c65565b610cae610ca682610c87565b848454610bff565b825550505050565b600090565b610cc3610cb6565b610cce818484610c91565b505050565b5b81811015610cf257610ce7600082610cbb565b600181019050610cd4565b5050565b601f821115610d3757610d0881610bcd565b610d1184610be2565b81016020851015610d20578190505b610d34610d2c85610be2565b830182610cd3565b50505b505050565b600082821c905092915050565b6000610d5a60001984600802610d3c565b1980831691505092915050565b6000610d738383610d49565b9150826002028217905092915050565b610d8c8261078c565b67ffffffffffffffff811115610da557610da461096b565b5b610daf8254610b9c565b610dba828285610cf6565b600060209050601f831160018114610ded5760008415610ddb578287015190505b610de58582610d67565b865550610e4d565b601f198416610dfb86610bcd565b60005b82811015610e2357848901518255600182019150602085019450602081019050610dfe565b86831015610e405784890151610e3c601f891682610d49565b8355505b6001600288020188555050505b505050505050565b60006040820190508181036000830152610e6f81856107e3565b90508181036020830152610e8381846107e3565b9050939250505056fea2646970667358221220819f2240ddbfd4a497b0f7c501e16c485ea79a825736e819ad94f0ec53ebc8f164736f6c63430008130033",
  "immutableReferences": {},
  "source": "// SPDX-License-Identifier: MIT\r\npragma solidity ^0.8.0;\r\n\r\nimport \"./Ownership.sol\"; // Ensure Ownership.sol is in the same directory\r\n\r\ncontract PatientDataStorage {\r\n    struct Patient {\r\n        string firstName;\r\n        string lastName;\r\n        string contactNumber;\r\n        string cancerType;\r\n    }\r\n\r\n    mapping(address => Patient) public patients;\r\n\r\n    event PatientDataStored(address indexed patientAddress, string firstName, string lastName);\r\n\r\n    function storePatientData(\r\n        string memory _firstName,\r\n        string memory _lastName,\r\n        string memory _contactNumber,\r\n        string memory _cancerType\r\n    ) public {\r\n        patients[msg.sender] = Patient(\r\n            _firstName,\r\n            _lastName,\r\n            _contactNumber,\r\n            _cancerType\r\n        );\r\n\r\n        emit PatientDataStored(msg.sender, _firstName, _lastName);\r\n    }\r\n\r\n    function getPatientData(address _patientAddress) public view returns (Patient memory) {\r\n        return patients[_patientAddress];\r\n    }\r\n}\r\n\r\n",
  "sourcePath": "C:\\blockchain\\Ethereum\\Cancer_Patient_Data_Management\\contracts\\PatientDataStorage.sol",
  "compiler": {
    "name": "solc",
    "version": "0.8.19+commit.7dd6d404.Emscripten.clang"
  },
  "schemaVersion": "3.4.16",
  "updatedAt": "2024-10-17T08:46:42.730Z",
  "networkType": "ethereum",
  "devdoc": {
    "kind": "dev",
    "methods": {},
    "version": 1
  },
  "userdoc": {
    "kind": "user",
    "methods": {},
    "version": 1
  }
}